{
  "contractName": "PropertyHelper",
  "abi": [
    {
      "anonymous": false,
      "inputs": [
        {
          "indexed": true,
          "internalType": "address",
          "name": "previousOwner",
          "type": "address"
        },
        {
          "indexed": true,
          "internalType": "address",
          "name": "newOwner",
          "type": "address"
        }
      ],
      "name": "OwnershipTransferred",
      "type": "event"
    },
    {
      "anonymous": false,
      "inputs": [
        {
          "indexed": false,
          "internalType": "uint256",
          "name": "propertyId",
          "type": "uint256"
        },
        {
          "indexed": false,
          "internalType": "string",
          "name": "name",
          "type": "string"
        },
        {
          "indexed": false,
          "internalType": "uint256",
          "name": "price",
          "type": "uint256"
        },
        {
          "indexed": false,
          "internalType": "string",
          "name": "addressProperty",
          "type": "string"
        }
      ],
      "name": "newProperty",
      "type": "event"
    },
    {
      "constant": false,
      "inputs": [
        {
          "internalType": "string",
          "name": "_name",
          "type": "string"
        },
        {
          "internalType": "uint256",
          "name": "_price",
          "type": "uint256"
        },
        {
          "internalType": "string",
          "name": "_addressProperty",
          "type": "string"
        }
      ],
      "name": "createProperty",
      "outputs": [],
      "payable": false,
      "stateMutability": "nonpayable",
      "type": "function"
    },
    {
      "constant": true,
      "inputs": [],
      "name": "owner",
      "outputs": [
        {
          "internalType": "address",
          "name": "",
          "type": "address"
        }
      ],
      "payable": false,
      "stateMutability": "view",
      "type": "function"
    },
    {
      "constant": true,
      "inputs": [
        {
          "internalType": "uint256",
          "name": "",
          "type": "uint256"
        }
      ],
      "name": "properties",
      "outputs": [
        {
          "internalType": "string",
          "name": "name",
          "type": "string"
        },
        {
          "internalType": "uint256",
          "name": "price",
          "type": "uint256"
        },
        {
          "internalType": "string",
          "name": "addressProperty",
          "type": "string"
        }
      ],
      "payable": false,
      "stateMutability": "view",
      "type": "function"
    },
    {
      "constant": true,
      "inputs": [
        {
          "internalType": "uint256",
          "name": "",
          "type": "uint256"
        }
      ],
      "name": "propertyToOwner",
      "outputs": [
        {
          "internalType": "address",
          "name": "",
          "type": "address"
        }
      ],
      "payable": false,
      "stateMutability": "view",
      "type": "function"
    },
    {
      "constant": false,
      "inputs": [
        {
          "internalType": "address",
          "name": "newOwner",
          "type": "address"
        }
      ],
      "name": "transferOwnership",
      "outputs": [],
      "payable": false,
      "stateMutability": "nonpayable",
      "type": "function"
    },
    {
      "constant": false,
      "inputs": [
        {
          "internalType": "uint256",
          "name": "_propertyId",
          "type": "uint256"
        },
        {
          "internalType": "string",
          "name": "_newName",
          "type": "string"
        }
      ],
      "name": "changeName",
      "outputs": [],
      "payable": false,
      "stateMutability": "nonpayable",
      "type": "function"
    },
    {
      "constant": false,
      "inputs": [
        {
          "internalType": "uint256",
          "name": "_propertyId",
          "type": "uint256"
        },
        {
          "internalType": "string",
          "name": "_newAddressProperty",
          "type": "string"
        }
      ],
      "name": "changeAddressProperty",
      "outputs": [],
      "payable": false,
      "stateMutability": "nonpayable",
      "type": "function"
    },
    {
      "constant": true,
      "inputs": [
        {
          "internalType": "address",
          "name": "_owner",
          "type": "address"
        }
      ],
      "name": "getPropertiesByOwner",
      "outputs": [
        {
          "internalType": "uint256[]",
          "name": "",
          "type": "uint256[]"
        }
      ],
      "payable": false,
      "stateMutability": "view",
      "type": "function"
    },
    {
      "constant": true,
      "inputs": [],
      "name": "getAllProperties",
      "outputs": [
        {
          "components": [
            {
              "internalType": "string",
              "name": "name",
              "type": "string"
            },
            {
              "internalType": "uint256",
              "name": "price",
              "type": "uint256"
            },
            {
              "internalType": "string",
              "name": "addressProperty",
              "type": "string"
            }
          ],
          "internalType": "struct PropertyFactory.Property[]",
          "name": "",
          "type": "tuple[]"
        }
      ],
      "payable": false,
      "stateMutability": "view",
      "type": "function"
    }
  ],
  "bytecode": "0x6080604052336000806101000a81548173ffffffffffffffffffffffffffffffffffffffff021916908373ffffffffffffffffffffffffffffffffffffffff1602179055506000809054906101000a900473ffffffffffffffffffffffffffffffffffffffff1673ffffffffffffffffffffffffffffffffffffffff16600073ffffffffffffffffffffffffffffffffffffffff167f8be0079c531659141344cd1fd0a4f28419497f9722a3daafe3b4186f6b6457e060405160405180910390a36112b6806100cf6000396000f3fe608060405234801561001057600080fd5b50600436106100935760003560e01c8063c39cbef111610066578063c39cbef114610134578063d6b0786e14610150578063ece2f43f1461016c578063f2fde38b14610188578063f7b10808146101a457610093565b80630b56e383146100985780633d51402c146100c85780638da5cb5b146100e65780639fcb274814610104575b600080fd5b6100b260048036036100ad9190810190610d0d565b6101d6565b6040516100bf9190610fbc565b60405180910390f35b6100d0610209565b6040516100dd9190610fd7565b60405180910390f35b6100ee6103b6565b6040516100fb9190610fbc565b60405180910390f35b61011e60048036036101199190810190610c65565b6103db565b60405161012b9190610ff9565b60405180910390f35b61014e60048036036101499190810190610d36565b610508565b005b61016a60048036036101659190810190610d36565b6105a8565b005b61018660048036036101819190810190610c8e565b610648565b005b6101a2600480360361019d9190810190610c65565b6107c0565b005b6101be60048036036101b99190810190610d0d565b610911565b6040516101cd9392919061101b565b60405180910390f35b60026020528060005260406000206000915054906101000a900473ffffffffffffffffffffffffffffffffffffffff1681565b60606001805480602002602001604051908101604052809291908181526020016000905b828210156103ad5783829060005260206000209060030201604051806060016040529081600082018054600181600116156101000203166002900480601f0160208091040260200160405190810160405280929190818152602001828054600181600116156101000203166002900480156102e95780601f106102be576101008083540402835291602001916102e9565b820191906000526020600020905b8154815290600101906020018083116102cc57829003601f168201915b5050505050815260200160018201548152602001600282018054600181600116156101000203166002900480601f0160208091040260200160405190810160405280929190818152602001828054600181600116156101000203166002900480156103955780601f1061036a57610100808354040283529160200191610395565b820191906000526020600020905b81548152906001019060200180831161037857829003601f168201915b5050505050815250508152602001906001019061022d565b50505050905090565b6000809054906101000a900473ffffffffffffffffffffffffffffffffffffffff1681565b606080600360008473ffffffffffffffffffffffffffffffffffffffff1673ffffffffffffffffffffffffffffffffffffffff1681526020019081526020016000205460405190808252806020026020018201604052801561044c5781602001602082028038833980820191505090505b509050600080905060008090505b6001805490508110156104fd578473ffffffffffffffffffffffffffffffffffffffff166002600083815260200190815260200160002060009054906101000a900473ffffffffffffffffffffffffffffffffffffffff1673ffffffffffffffffffffffffffffffffffffffff1614156104f057808383815181106104db57fe5b60200260200101818152505081806001019250505b808060010191505061045a565b508192505050919050565b826002600082815260200190815260200160002060009054906101000a900473ffffffffffffffffffffffffffffffffffffffff1673ffffffffffffffffffffffffffffffffffffffff163373ffffffffffffffffffffffffffffffffffffffff161461057457600080fd5b82826001868154811061058357fe5b906000526020600020906003020160000191906105a1929190610a78565b5050505050565b826002600082815260200190815260200160002060009054906101000a900473ffffffffffffffffffffffffffffffffffffffff1673ffffffffffffffffffffffffffffffffffffffff163373ffffffffffffffffffffffffffffffffffffffff161461061457600080fd5b82826001868154811061062357fe5b90600052602060002090600302016002019190610641929190610a78565b5050505050565b60006001806040518060600160405280878152602001868152602001858152509080600181540180825580915050906001820390600052602060002090600302016000909192909190915060008201518160000190805190602001906106af929190610af8565b506020820151816001015560408201518160020190805190602001906106d6929190610af8565b505050039050336002600083815260200190815260200160002060006101000a81548173ffffffffffffffffffffffffffffffffffffffff021916908373ffffffffffffffffffffffffffffffffffffffff160217905550600360003373ffffffffffffffffffffffffffffffffffffffff1673ffffffffffffffffffffffffffffffffffffffff168152602001908152602001600020600081548092919060010191905055507f4218eda808555e98fa2893776fcfed449d54d610e3c31cbdd010cd88652223e3818585856040516107b29493929190611060565b60405180910390a150505050565b6000809054906101000a900473ffffffffffffffffffffffffffffffffffffffff1673ffffffffffffffffffffffffffffffffffffffff163373ffffffffffffffffffffffffffffffffffffffff161461081957600080fd5b600073ffffffffffffffffffffffffffffffffffffffff168173ffffffffffffffffffffffffffffffffffffffff16141561085357600080fd5b8073ffffffffffffffffffffffffffffffffffffffff166000809054906101000a900473ffffffffffffffffffffffffffffffffffffffff1673ffffffffffffffffffffffffffffffffffffffff167f8be0079c531659141344cd1fd0a4f28419497f9722a3daafe3b4186f6b6457e060405160405180910390a3806000806101000a81548173ffffffffffffffffffffffffffffffffffffffff021916908373ffffffffffffffffffffffffffffffffffffffff16021790555050565b6001818154811061091e57fe5b9060005260206000209060030201600091509050806000018054600181600116156101000203166002900480601f0160208091040260200160405190810160405280929190818152602001828054600181600116156101000203166002900480156109ca5780601f1061099f576101008083540402835291602001916109ca565b820191906000526020600020905b8154815290600101906020018083116109ad57829003601f168201915b505050505090806001015490806002018054600181600116156101000203166002900480601f016020809104026020016040519081016040528092919081815260200182805460018160011615610100020316600290048015610a6e5780601f10610a4357610100808354040283529160200191610a6e565b820191906000526020600020905b815481529060010190602001808311610a5157829003601f168201915b5050505050905083565b828054600181600116156101000203166002900490600052602060002090601f016020900481019282601f10610ab957803560ff1916838001178555610ae7565b82800160010185558215610ae7579182015b82811115610ae6578235825591602001919060010190610acb565b5b509050610af49190610b78565b5090565b828054600181600116156101000203166002900490600052602060002090601f016020900481019282601f10610b3957805160ff1916838001178555610b67565b82800160010185558215610b67579182015b82811115610b66578251825591602001919060010190610b4b565b5b509050610b749190610b78565b5090565b610b9a91905b80821115610b96576000816000905550600101610b7e565b5090565b90565b600081359050610bac81611245565b92915050565b60008083601f840112610bc457600080fd5b8235905067ffffffffffffffff811115610bdd57600080fd5b602083019150836001820283011115610bf557600080fd5b9250929050565b600082601f830112610c0d57600080fd5b8135610c20610c1b826110e0565b6110b3565b91508082526020830160208301858383011115610c3c57600080fd5b610c478382846111f2565b50505092915050565b600081359050610c5f8161125c565b92915050565b600060208284031215610c7757600080fd5b6000610c8584828501610b9d565b91505092915050565b600080600060608486031215610ca357600080fd5b600084013567ffffffffffffffff811115610cbd57600080fd5b610cc986828701610bfc565b9350506020610cda86828701610c50565b925050604084013567ffffffffffffffff811115610cf757600080fd5b610d0386828701610bfc565b9150509250925092565b600060208284031215610d1f57600080fd5b6000610d2d84828501610c50565b91505092915050565b600080600060408486031215610d4b57600080fd5b6000610d5986828701610c50565b935050602084013567ffffffffffffffff811115610d7657600080fd5b610d8286828701610bb2565b92509250509250925092565b6000610d9a8383610f47565b905092915050565b6000610dae8383610f9e565b60208301905092915050565b610dc3816111b6565b82525050565b6000610dd48261112c565b610dde8185611172565b935083602082028501610df08561110c565b8060005b85811015610e2c5784840389528151610e0d8582610d8e565b9450610e1883611158565b925060208a01995050600181019050610df4565b50829750879550505050505092915050565b6000610e4982611137565b610e538185611183565b9350610e5e8361111c565b8060005b83811015610e8f578151610e768882610da2565b9750610e8183611165565b925050600181019050610e62565b5085935050505092915050565b6000610ea78261114d565b610eb181856111a5565b9350610ec1818560208601611201565b610eca81611234565b840191505092915050565b6000610ee082611142565b610eea8185611194565b9350610efa818560208601611201565b610f0381611234565b840191505092915050565b6000610f1982611142565b610f2381856111a5565b9350610f33818560208601611201565b610f3c81611234565b840191505092915050565b60006060830160008301518482036000860152610f648282610ed5565b9150506020830151610f796020860182610f9e565b5060408301518482036040860152610f918282610ed5565b9150508091505092915050565b610fa7816111e8565b82525050565b610fb6816111e8565b82525050565b6000602082019050610fd16000830184610dba565b92915050565b60006020820190508181036000830152610ff18184610dc9565b905092915050565b600060208201905081810360008301526110138184610e3e565b905092915050565b600060608201905081810360008301526110358186610f0e565b90506110446020830185610fad565b81810360408301526110568184610f0e565b9050949350505050565b60006080820190506110756000830187610fad565b81810360208301526110878186610e9c565b90506110966040830185610fad565b81810360608301526110a88184610e9c565b905095945050505050565b6000604051905081810181811067ffffffffffffffff821117156110d657600080fd5b8060405250919050565b600067ffffffffffffffff8211156110f757600080fd5b601f19601f8301169050602081019050919050565b6000819050602082019050919050565b6000819050602082019050919050565b600081519050919050565b600081519050919050565b600081519050919050565b600081519050919050565b6000602082019050919050565b6000602082019050919050565b600082825260208201905092915050565b600082825260208201905092915050565b600082825260208201905092915050565b600082825260208201905092915050565b60006111c1826111c8565b9050919050565b600073ffffffffffffffffffffffffffffffffffffffff82169050919050565b6000819050919050565b82818337600083830152505050565b60005b8381101561121f578082015181840152602081019050611204565b8381111561122e576000848401525b50505050565b6000601f19601f8301169050919050565b61124e816111b6565b811461125957600080fd5b50565b611265816111e8565b811461127057600080fd5b5056fea365627a7a72315820668b99b1eb89846ccad589f3417fcddfa8db971c996496ae66888d2373e34d436c6578706572696d656e74616cf564736f6c634300050c0040",
  "source": "pragma solidity >=0.4.25 < 0.6.0;\npragma experimental ABIEncoderV2;\n\nimport \"./propertyfactory.sol\";\n\ncontract PropertyHelper is PropertyFactory {\n\nfunction changeName(uint _propertyId, string calldata _newName) external onlyOwnerOf(_propertyId) {\n  properties[_propertyId].name = _newName;\n}\n\nfunction changeAddressProperty(uint _propertyId, string calldata _newAddressProperty) external onlyOwnerOf(_propertyId) {\n  properties[_propertyId].addressProperty = _newAddressProperty;\n}\n\nfunction getPropertiesByOwner(address _owner) public view returns(uint[] memory) {\n    uint[] memory result = new uint[](ownerPropertyCount[_owner]);\n    uint counter = 0;\n    for (uint i = 0; i < properties.length; i++) {\n      if (propertyToOwner[i] == _owner) {\n        result[counter] = i;\n        counter++;\n      }\n    }\n    return result;\n  }\n\n  function getAllProperties() public view returns(Property[] memory) {\n      return properties;\n  }\n}\n\n\n",
  "sourcePath": "/Users/kyllian/Projets/MarketPlace-Back/contracts/propertyhelper.sol",
  "compiler": {
    "name": "solc",
    "version": "0.5.12+commit.7709ece9.Emscripten.clang"
  },
  "schemaVersion": "3.0.19",
  "updatedAt": "2020-01-23T21:38:59.233Z",
  "networkType": "ethereum",
  "devdoc": {
    "methods": {
      "transferOwnership(address)": {
        "details": "Allows the current owner to transfer control of the contract to a newOwner.",
        "params": {
          "newOwner": "The address to transfer ownership to."
        }
      }
    }
  },
  "userdoc": {
    "methods": {}
  }
}